:020000040000FA
:1000000000008A11B7291734F200030E8301F100B2
:100010000A088A01F000040883120313B300831254
:100020000313B50A0319B60A0319B70A00303702D9
:10003000031D24281E303602031D24288430350277
:10004000031D242880303402031C3828803083129A
:100050000313B4077B3003187C30B507E130031875
:10006000E230B607FF30031CB7078A11C5228A1198
:10007000831203133D0883120313AC002C0A83126E
:100080000313BD001F30BD053D08031D4C28013082
:1000900083120313BC005A28831203133E088312F1
:1000A00003133D06031D5A28831203130515071574
:1000B00087140714831203130B11831203133308DD
:1000C00083120313840070088A008301710E830079
:1000D000F20E720E090083120313B0018A11F2228C
:1000E0008A11831203133C0803197128BC010430E0
:1000F000831203133F0203182E29003083120313C7
:100100008A008B30831203133F07031C8A28831253
:1001100003138A0A82008F28B728DF280729831251
:1001200003130714831203133A1C9A288312031330
:1001300087169D2883120313871283120313BA1C98
:10014000A528831203130716A82883120313071286
:10015000831203133A1DB028831203138715B328A3
:100160008312031387118312031305112E2983129F
:100170000313051583120313BA1DC2288312031338
:100180008716C528831203138712831203133A1E9E
:10019000CD28831203130716D028831203130712E6
:1001A00083120313BA1ED828831203138715DB2882
:1001B0008312031387118312031307112E2983124D
:1001C0000313071583120313391CEA288312031340
:1001D0008716ED2883120313871283120313B91CA9
:1001E000F528831203130716F82883120313071246
:1001F00083120313391D0029831203138715032962
:100200008312031387118312031387102E2983127D
:100210000313871483120313B91D122983120313C6
:100220008716152983120313871283120313391EAD
:100230001D298312031307162029831203130712A3
:1002400083120313B91E28298312031387152B2940
:1002500083120313871183120313071083120313EE
:10026000BF0A04303F020318BF018312031385192C
:100270004129FF3083120313380203185C29B80A9E
:100280005C290B30831203133802031C5929831293
:100290000313390A83120313B10083120313B90045
:1002A0001830831203133102031C592983120313DC
:1002B000B90183120313B801831203138518682947
:1002C000FF3083120313400203188329C00A8329D5
:1002D0000B30831203134002031C80298312031383
:1002E0003A0A83120313B10083120313BA003C309D
:1002F000831203133102031C802983120313BA01F2
:1003000083120313C00183120313300AB100B0003B
:100310003108031D7128831203139F1871281E08CA
:1003200083120313B100831203139F1457308312F7
:10033000031331020318A129013083120313BE00F5
:1003400071287730831203133102031CAC2920304B
:1003500083120313BE007128831203133108B20005
:10036000AA30320783120313BE00712808005330ED
:10037000FE000230FF0080308A11000091228A11B5
:10038000000083120313A1007F08A0005530A200D3
:100390000230A300831203132008A4002108A50043
:1003A000FF30A007031CA1032508240403194F2ACA
:1003B00004302207A400A501A50D2308A5072408E1
:1003C000FE002508FF0080308A11000091228A116A
:1003D000000083120313A7007F08A6002208FE0076
:1003E0002308FF0080308A11000091228A1100004A
:1003F00083120313A900A5007F08A400A8000230FF
:100400002207A400A501A50D2308A5072408FE00C6
:100410002508FF0080308A11000091228A11000017
:1004200083120313A500AB007F08AA00A400831267
:1004300003132608AA002708AB00FF30A607031CF9
:10044000A7032B082A040319482A2808FE002908B4
:10045000FF0080308A110000B2228A11000083124E
:100460000313AA0024088312031384008313831246
:100470000313251883172A0883120313800083129D
:100480000313A80A0319A90AA40A0319A50A172A1B
:10049000063083120313A2070318A30ACA298A117C
:1004A00000006B2808000A34003403340034393467
:1004B000003401340034473403343A340034013416
:1004C0000034483403343B340034013400344334C2
:1004D00003343434003404340034493403343C34B9
:1004E0000034013400344A3403343D3400340134E0
:1004F00000344B3403343E340034013400344C3483
:1005000003343F340034013400344D340334403478
:100510000034013400344E340334413400340134A7
:100520000034003A0319992A803A0319A32AFF01DB
:1005300000347E08840083137F1883170008FF00AF
:10054000840A000808008A110000C022FD00FE0F86
:10055000FF03FF0A8A110000C022FC007D08FF0093
:100560007C080800003A0319B92A803A0319C02A06
:1005700000347E08840083137F1883170008080066
:100580007F088A007E088200080083120313BB0ADA
:100590003C303B02031CF12ABB01831203133A0ACD
:1005A00083120313AD0083120313BA003C3083128D
:1005B00003132D02031CF12A83120313BA018312C1
:1005C0000313390A83120313AD0083120313B90016
:1005D0001830831203132D02031CF12A8312031314
:1005E000B901080083160313870107308312031330
:1005F0008700FB3083160313850006308312031334
:10060000850007309900013083160313910083128F
:1006100003139F017030831603139F00831203138B
:100620001F149F14083083160313810083120313D1
:1006300081010B118B168B17080083120313390AE3
:1006400083120313AF0083120313B900183083120F
:1006500003132F02031C2F2B83120313B90108006D
:10066000831203133A0A83120313AE008312031397
:10067000BA003C30831203132E02031C422B831258
:100680000313BA01080000340034003400343B3452
:0E0690000034003400342034003400340034D0
:02400E00C23FAF
:00000001FF
