:020000040000FA
:1000000000008A11D32A0034F200030E8301F100AC
:100010000A088A01F000040883120313C100831642
:100020000313480883120313A000200A8316031346
:10003000C8001F30C8054808031DE2280430831695
:1000400003134A020318D5280030831203138A00D1
:100050003230831603134A07031C3128831203131B
:100060008A0A820036285E288628AE288312031367
:10007000071483160313451C4128831203138716A4
:10008000442883120313871283160313C51C4C28BC
:100090008312031307164F288312031307128316C4
:1000A0000313451D57288312031387155A288312FB
:1000B00003138711831203130511D5288312031329
:1000C000051583160313C51D6928831203138716AC
:1000D0006C2883120313871283160313451E74289A
:1000E000831203130716772883120313071283164C
:1000F0000313C51E7F2883120313871582288312DA
:1001000003138711831203130711D52883120313D6
:10011000071583160313441C9128831203138716B3
:10012000942883120313871283160313C41C9C287C
:100130008312031307169F288312031307128316D3
:100140000313441DA728831203138715AA288312BB
:1001500003138711831203138710D5288312031307
:10016000871483160313C41DB9288312031387163B
:10017000BC2883120313871283160313441EC4285A
:10018000831203130716C72883120313071283165B
:100190000313C41ECF28831203138715D22883129A
:1001A0000313871183120313071083160313CA0A5C
:1001B00004304A02031CF028CA01013083160313DD
:1001C000C700F02883160313490883160313480653
:1001D000031DF02883120313051507158714071450
:1001E000831203130B1183120313410883120313A9
:1001F000840070088A008301710E8300F20E720E73
:10020000090083120313A1018A15DD208A118A11C6
:1002100090258A1183120313A2002208031D1E29B0
:1002200083160313A8012330A900AA000430AB00F1
:100230002330AC000430AD002330AE00831603132E
:10024000470803191E29C70183120313851D30298E
:10025000FF30831203136E0203183C29EE0A3C2977
:100260000530831203136E02031C39298A11852479
:100270008A1183120313EE0183120313851C48298C
:10028000FF30831603134B0203185429CB0A542959
:100290000530831603134B02031C51298A11FE23D8
:1002A0008A1183160313CB0183120313A10A2108B9
:1002B0003F3A031D8629A101831203139F18862943
:1002C0001E0883120313A200831203139F145730D6
:1002D00083120313220203187229013083160313B9
:1002E000C90086297730831203132202031C7D295B
:1002F000203083160313C9008629831203132208B2
:10030000A300AA30230783160313C9008A1190257E
:100310008A1183120313A20022080319292A8316C3
:1003200003132908703983120313A200A20E0F30A1
:10033000A2050A30FF002208A3008A1556218A115F
:100340007F0883120313A2008316031329080F39B1
:1003500083120313A300A400220783160313C5000E
:10036000831603132A08303983120313A200A20E46
:100370000F30A2052208A30001302305A2000A3095
:10038000FF0022088A1556218A117F088312031361
:10039000A200831603132A080F3983120313A30044
:1003A000A400220783160313C400831603132A1F15
:1003B000072A2A08303983120313A200A20E0F3035
:1003C000A2050310220CA30023080319F7298316A2
:1003D000031344080C3A03191E294408831203131B
:1003E000A2000C30220783160313C4001E298316B3
:1003F000031344080C3A031D1E29440883120313F7
:10040000A200F430220783160313C4001E298316AA
:1004100003132A08303983120313A200A20E0F30EF
:10042000A2050A30FF002208A3008A1556218A116E
:100430007F0883120313A200831603132A080F39BF
:1004400083120313A300A400220783160313C4001E
:100450001E298A11BE268A111E2908008312031341
:10046000BD00BE0183160313051683120313051680
:10047000831603138512831203138512013083122E
:100480000313BF000330831203133F0203184D2AE6
:10049000000083120313BF03422A83120313BF0118
:1004A00083160313851683120313851601308312F6
:1004B0000313C00003308312031340020318652A9C
:1004C000000083120313C0035A2A831203133E0849
:1004D000C0000310400DBE0083120313051E732AD3
:1004E000831203133E14831603138512831203131E
:1004F0008512013083120313C000033083120313EB
:1005000040020318882A000083120313C0037D2AC7
:1005100083120313BF0A08303F02031C502A3D0810
:100520000319992A83160313051283120313051264
:100530009F2A8316031305168312031305168316C9
:1005400003138516831203138516013083120313D8
:10055000BD000330831203133D020318B42A0000C8
:1005600083120313BD03A92A831603138512831272
:1005700003138512013083120313BD00033083126D
:1005800003133D020318C92A000083120313BD039D
:10059000BE2A83160313051683120313051683124E
:1005A00003133E080800A130FE000730FF00803032
:1005B0008A15000078208A11000083120313D100ED
:1005C0007F08D000A330D2000730D300831203137A
:1005D0005008D4005108D500FF30D007031CD103C8
:1005E0005508540403196B2B04305207D400D5016D
:1005F000D50D5308D5075408FE005508FF0080307C
:100600008A15000078208A11000083120313D70096
:100610007F08D6005208FE005308FF0080308A157C
:10062000000078208A11000083120313D900D5003E
:100630007F08D400D80002305207D400D501D50D70
:100640005308D5075408FE005508FF0080308A156E
:10065000000078208A11000083120313D500DB000C
:100660007F08DA00D400831203135608DA00570813
:10067000DB00FF30D607031CD7035B085A040319BD
:10068000642B5808FE005908FF0080308A150000CE
:1006900099208A11000083120313DA005408831290
:1006A00003138400831383120313551883175A0806
:1006B00083120313800083120313D80A0319D90A83
:1006C000D40A0319D50A332B063083120313D20739
:1006D0000318D30AE62A8A110000012908008312B0
:1006E0000313BA00BB0183120313BA1F7E2B8316B8
:1006F00003130516831203130516842B83160313A5
:100700000512831203130512013083120313BC0078
:100710000330831203133C020318932B000083124F
:100720000313BC03882B831603138516831203134C
:100730008516013083120313BC00033083120313A8
:100740003C020318A82B000083120313BC039D2B4B
:100750008316031385128312031385128312031366
:100760003A08BC0003103C0DBA00BB0A08303B023B
:10077000031C732B8316031305168312031305162C
:10078000013083120313BA000330831203133A02B9
:100790000318CF2B000083120313BA03C42B831654
:1007A0000313851683120313851601308312031376
:1007B000BA000330831203133A020318E42B00003B
:1007C00083120313BA03D92B83120313BA018312C2
:1007D0000313051EEE2B83120313BA0A83120313AD
:1007E0003A08031D0130BB008316031385128312E0
:1007F00003138512831203133B08080083160313A7
:100800002908703983120313AB00AB0E0F30AB0510
:10081000AD012B08AC00FD000030FE000A30FF00E7
:1008200000308A110C258A1183120313AC007F0853
:10083000AB00AB0A0319AC0A8316031329080F395E
:1008400083120313AD00AE00AF012E08AB070030DA
:1008500003182F0FAC073C30FD000030FE002B08C2
:10086000FF002C088A115D268A1183120313AC0045
:100870007F08AB00AD00AB00AC010A30FD000030DA
:10088000FE002B08FF0000308A11F7258A11831221
:100890000313AE007F08AD00AF0007302F05AD0099
:1008A0000739B000B00EF030B005831603132908E5
:1008B0008F3983120313300483160313A9000A30FF
:1008C000FD000030FE00831203132B08FF002C08EC
:1008D0008A115D268A1183120313AC007F08AB00D6
:1008E000AD000F302D05AB000F39B0008316031398
:1008F0002908F03983120313300483160313A90067
:100900002A138A1500208A110800831603132A0867
:10091000303983120313A500A50E0F30A505A701DA
:100920002508A600FD000030FE000A30FF00003060
:100930008A110C258A1183120313A6007F08A500D3
:10094000A50A0319A60A831603132A080F3983126E
:100950000313A700A800A9012808A5070030031861
:10096000290FA6071830FD000030FE002508FF0003
:1009700026088A115D268A1183120313A6007F08B8
:10098000A500A700A500A6010A30FD000030FE006A
:100990002508FF0000308A11F7258A1183120313FE
:1009A000A8007F08A700A90003302905A700033984
:1009B000AA00AA0EF030AA05831603132A08CF391D
:1009C000831203132A0483160313AA000A30FD00BE
:1009D0000030FE00831203132508FF0026088A1149
:1009E0005D268A1183120313A6007F08A500A700C5
:1009F0000F302705A5000F39AA00831603132A0814
:100A0000F039831203132A0483160313AA002A134E
:100A10008A1500208A11080083120313DD007F0865
:100A200083120313E00083120313DC007E08DF004F
:100A30007D0883120313E20083120313DE005D08B6
:100A400083120313E100831203135F08831203135D
:100A5000E30083120313600883120313DC00831284
:100A60000313620883120313DD00FF005C088A157C
:100A7000000009218A11000083120313DD007F08A2
:100A8000DC0083120313E400831203135D08831256
:100A90000313E50083120313DC00831203136008C1
:100AA00083120313DD0083120313630883120313FD
:100AB000DE00FF005D088A15000009218A11000090
:100AC0007F0883120313DD0083120313610883126E
:100AD0000313DE0083120313620883120313DF0083
:100AE000FF005E088A15000009218A1100007F08B6
:100AF00083120313DE00DD075D08DC075C08831248
:100B00000313E500640883120313DC00831203134C
:100B1000650883120313DD005C08FF005D08080010
:100B20008A115B278A11D0308A116F238A118312B0
:100B30000313B4003408031DEF2D00308A116F2316
:100B40008A118A115B278A11D1308A116F238A1189
:100B500083120313B401831203133408A83EB500B3
:100B600000300318013EB60001308A112E228A118E
:100B700083120313B7003508831203138400831311
:100B80008312031336188317370883120313800068
:100B900083120313B40A06303402031CAB2D34084D
:100BA000A83EB40000300318013EB50000308A11A1
:100BB0002E228A1183120313B60034088312031302
:100BC00084008313831203133518831736088312A6
:100BD000031380008A15AC208A110130F62D8A1586
:100BE000AC208A118A15AC208A11003008008312CB
:100BF0000313E7007F08E6007E08E9007D08E800AF
:100C00000314E71F0310EA01EA0D6A080319102E06
:100C10006609EB006709EC00EB0A0319EC0A162ED3
:100C2000831203136608EB006708EC0083120313BA
:100C30006B08E6006C08E7000314E91F0310EB01E2
:100C4000EB0D6B0803192C2E6809EC006909ED0007
:100C5000EC0A0319ED0A322E831203136808EC0024
:100C60006908ED00831203136C08E800FD006D08AD
:100C7000E900FE006608FF0067088A1500004020B2
:100C80008A11000083120313E7007F08E6006B0857
:100C9000EA066A080319572E6609EA006709E800A0
:100CA000EA0A0319E80A6A08FF0068085C2E831242
:100CB00003136608FF006708080083160313B000DB
:100CC0007F08AF007E08B2007D08B1000314B01F9A
:100CD0000310B301B30D33080319762E2F09B400A6
:100CE0003009B500B40A0319B50A7C2E8316031324
:100CF0002F08B4003008B500831603133408AF0082
:100D00003508B0000314B21F0310031C8F2E3109E5
:100D1000B4003209B500B40A0319B50A952E83163A
:100D200003133108B4003208B500831603133408E6
:100D3000B100FD003508B200FE002F08FF003008AA
:100D40008A1100000E278A11000083160313B000D9
:100D50007F08AF0033080319B82E2F09B3003009FC
:100D6000B100B30A0319B10A3308FF003108BD2EE0
:100D7000831603132F08FF00300808000430831681
:100D800003134D020318F62E0630831203138A0054
:100D9000D230831603134D07031CD12E8312031385
:100DA0008A0A8200D62EDE2EE62EEE2E38308316EC
:100DB0000313C40083160313C501FE2E07308316E8
:100DC0000313C40083160313C501FE2E83160313F9
:100DD000C401383083160313C500FE2E8316031397
:100DE000C401073083160313C500FE2E703083162E
:100DF0000313C400073083160313C50083160313BF
:100E0000CC0A0D304C02031C0D2FCC0183160313AA
:100E1000CD0A04304D020318CD01080083160313D8
:100E2000B7007F08B6007E08B9007D08B800BA0197
:100E3000BB018316031339088039031D0130BC0040
:100E40003C08031D3A2F0310B80DB90D39083702BD
:100E5000031D2C2F380836020318342F0310831675
:100E60000313B90CB80C3A2F83160313BB0A3B08C3
:100E7000BA00192F8316031339083702031D422FB6
:100E800038083602031C4C2F831603133808B602A9
:100E90003908031C390FB702031083160313B90C6A
:100EA000B80C3A08BB00BA033B08031D3A2F3608BA
:100EB000FF00370808008316031305168312031377
:100EC0000516013083120313B80003308312031395
:100ED00038020318702F000083120313B803652F24
:100EE00083160313851683120313851601308312AC
:100EF0000313B80003308312031338020318852F3D
:100F0000000083120313B8037A2F8316031305120C
:100F1000831203130512013083120313B800033048
:100F200083120313380203189A2F0000831203134D
:100F3000B8038F2F831603138512831203138512B0
:100F400008000B34003403340034C434003401345A
:100F50000034E5340734C534003401340034E63459
:100F60000734C634003401340034E7340734C7345E
:100F7000003401340034E8340734C8340034013418
:100F80000034E9340734C934003401340034EA341D
:100F90000734CA34003401340034EB340734CB3422
:100FA000003401340034EC340734CC3400340134E0
:100FB0000034ED340734CD34003401340034EE34E1
:100FC0000734CE34003401340034003400340034AB
:0E0FD000003420340034003400340034003487
:101000008A115B278A15D0308A116F238A158312C3
:101010000313B1003108031D382800308A116F23F3
:101020008A1583120313B101831203133108A83EFA
:10103000B20000300318013EB300320883120313DC
:10104000840083138312031333188317831203134B
:1010500000088A116F238A1583120313B10A07301F
:101060003102031C14288A15AC208A1501303F2850
:101070008A15AC208A158A15AC208A150030080024
:1010800083160313A1007F08A0007E08A3007D083B
:10109000A200A401A5011030A600831603132108A5
:1010A0008039031D0130A7000310A00DA10D03100E
:1010B000A40DA50D2708031D241423082502031DD4
:1010C000632822082402031C6E28831603132208B7
:1010D000A4022308031C230FA50220148316031364
:1010E000A6032608031D4D282008FF00210808003C
:1010F000003A03198028803A03198A28FF01003436
:101100007E08840083137F1883170008FF00840A79
:10111000000808008A150000A720FD00FE0FFF034D
:10112000FF0A8A150000A720FC007D08FF007C084C
:101130000800003A0319A028803A0319A7280034B0
:101140007E08840083137F188317000808007F0837
:101150008A007E088200080083160313051283129A
:1011600003130512013083120313B90003308312F5
:10117000031339020318C128000083120313B903B3
:10118000B6288316031385168312031385160130C0
:1011900083120313B90003308312031339020318B7
:1011A000D628000083120313B903CB288316031338
:1011B00005168312031305160800831603130F1672
:1011C00087010730831203138700FB308316031354
:1011D0008500063083120313850007309900013023
:1011E000831603139100831203139F01703083163B
:1011F00003139F00831203131F149F1408308316D8
:10120000031381008312031381010B118B168B17BB
:10121000080083160313BD007F08BE00BF01C00194
:10122000C101083083160313410203182E2903104D
:10123000BF0DC00DBD1F25290030C3003E08C200F0
:10124000BF0743080318430FC007831603133D0865
:10125000C2000310420DBD00C10A112983160313F9
:101260003F08FF004008080083120313CB007F08EB
:10127000CC004B08CD00CB00CE014C08CD00CF01F7
:10128000CD1BCF034D08FD004F08FE004B08FF00AB
:101290004E088A1100000C258A15000083120313E2
:1012A000CC007F08CB00FF004C080800831203131A
:1012B000C400C2007F08C300C501C41BC5034308A6
:1012C000C200C601C21BC6034208FD004608FE005C
:1012D0004408FF0045088A1100000C258A1500000B
:1012E00083120313C3007F08C200FF0043080800F5
:1012F00083120313C7007F08C8004708C900C7004E
:10130000CA01C71BCA034808C900FD000030FE001F
:101310004708FF004A088A1100000C258A150000C2
:1013200083120313C8007F08C700FF0048080800A5
:02400E00C43FAD
:00000001FF
