:020000040000FA
:1000000000008A11602A1734F200030E8301F10008
:100010000A088A01F000040883120313C100831642
:1000200003134C0883120313A000200A8316031342
:10003000CC001F30CC054C08031DE2280430831689
:1000400003134E020318D5280030831203138A00CD
:100050003230831603134E07031C31288312031317
:100060008A0A820036285E288628AE288312031367
:10007000071483160313491C4128831203138716A0
:10008000442883120313871283160313C91C4C28B8
:100090008312031307164F288312031307128316C4
:1000A0000313491D57288312031387155A288312F7
:1000B00003138711831203130511D5288312031329
:1000C000051583160313C91D6928831203138716A8
:1000D0006C2883120313871283160313491E742896
:1000E000831203130716772883120313071283164C
:1000F0000313C91E7F2883120313871582288312D6
:1001000003138711831203130711D52883120313D6
:10011000071583160313481C9128831203138716AF
:10012000942883120313871283160313C81C9C2878
:100130008312031307169F288312031307128316D3
:100140000313481DA728831203138715AA288312B7
:1001500003138711831203138710D5288312031307
:10016000871483160313C81DB92883120313871637
:10017000BC2883120313871283160313481EC42856
:10018000831203130716C72883120313071283165B
:100190000313C81ECF28831203138715D228831296
:1001A0000313871183120313071083160313CE0A58
:1001B00004304E02031CF028CE01013083160313D5
:1001C000CB00F028831603134D08831603134C0647
:1001D000031DF02883120313051507158714071450
:1001E000831203130B1183120313410883120313A9
:1001F000840070088A008301710E8300F20E720E73
:10020000090083120313A1018A1563208A11831642
:1002100003134B0803190729CB0183120313851914
:100220001929FF30831203136E0203182529EE0AE1
:1002300025290430831203136E02031C22298A111C
:100240000D248A1183120313EE0183120313851800
:100250003129FF30831603134F0203183D29CF0ABB
:100260003D290430831603134F02031C3A298A11D7
:1002700087238A1183160313CF0183120313A10A64
:1002800021083F3A031D6F29A101831203139F1810
:100290006F291E0883120313A200831203139F14F5
:1002A000573083120313220203185B29013083168F
:1002B0000313CD006F297730831203132202031C2E
:1002C0006629203083160313CD006F298312031390
:1002D0002208A300AA30230783160313CD008A1136
:1002E00017258A1183120313A20022080319BB29C0
:1002F000831603132908703983120313A200A20E78
:100300000F30A2050A30FF002208A3008A15DC2066
:100310008A117F0883120313A2008316031329088E
:100320000F3983120313A300A400220783160313BB
:10033000C900831603132A08303983120313A2005D
:10034000A20E0F30A2050A30FF002208A3008A1572
:10035000DC208A117F0883120313A2008316031383
:100360002A080F3983120313A300A400220783165F
:100370000313C80007298A1145268A110729080096
:1003800083120313BD00BE018316031305168312E7
:1003900003130516831603138512831203138512A4
:1003A000013083120313BF00831203133F080319A4
:1003B000DE29000083120313BF03D4298312031321
:1003C000BF018316031385168312031385160130AC
:1003D00083120313C0008312031340080319F52985
:1003E000000083120313C003EB29831203133E089A
:1003F000C0000310400DBE0083120313051E032A24
:10040000831203133E1483160313851283120313FE
:100410008512013083120313C000831203134008B6
:100420000319172A000083120313C0030D2A831235
:100430000313BF0A08303F02031CE1293D080319DA
:10044000282A8316031305128312031305122E2A7A
:10045000831603130516831203130516831603135D
:100460008516831203138516013083120313BD0012
:10047000831203133D080319422A00008312031359
:10048000BD03382A831603138512831203138512C2
:10049000013083120313BD00831203133D080319B7
:1004A000562A000083120313BD034C2A831603133C
:1004B0000516831203130516831203133E08080062
:1004C000E230FE000630FF0080308A150000002078
:1004D0008A11000083120313D1007F08D000E4309A
:1004E000D2000630D300831203135008D400510801
:1004F000D500FF30D007031CD1035508540403195D
:10050000F82A04305207D400D501D50D5308D50779
:100510005408FE005508FF0080308A1500000020B6
:100520008A11000083120313D7007F08D6005208F7
:10053000FE005308FF0080308A15000000208A1159
:10054000000083120313D900D5007F08D400D8001F
:1005500002305207D400D501D50D5308D5075408F1
:10056000FE005508FF0080308A15000000208A1127
:10057000000083120313D500DB007F08DA00D400EB
:10058000831203135608DA005708DB00FF30D60742
:10059000031CD7035B085A040319F12A5808FE000C
:1005A0005908FF0080308A15000021208A110000C0
:1005B00083120313DA005408831203138400831395
:1005C00083120313551883175A08831203138000EC
:1005D00083120313D80A0319D90AD40A0319D50AB6
:1005E000C02A063083120313D2070318D30A732AD2
:1005F0008A1100000129080083120313BA00BB010D
:1006000083120313BA1F0B2B8316031305168312D1
:1006100003130516112B83160313051283120313FC
:100620000512013083120313BC00831203133C082C
:1006300003191F2B000083120313BC03152B831611
:1006400003138516831203138516013083120313D7
:10065000BC00831203133C080319332B00008312E0
:100660000313BC03292B8316031385128312031370
:100670008512831203133A08BC0003103C0DBA0024
:10068000BB0A08303B02031C002B8316031305161C
:10069000831203130516013083120313BA00831269
:1006A00003133A080319592B000083120313BA03EA
:1006B0004F2B8316031385168312031385160130FF
:1006C00083120313BA00831203133A0803196D2B24
:1006D000000083120313BA03632B83120313BA01BE
:1006E00083120313051E772B83120313BA0A831296
:1006F00003133A08031D0130BB0083160313851250
:10070000831203138512831203133B080800831618
:1007100003132908703983120313AB00AB0E0F309B
:10072000AB05AD012B08AC00FD000030FE000A3027
:10073000FF0000308A1193248A1183120313AC0046
:100740007F08AB00AB0A0319AC0A83160313290810
:100750000F3983120313AD00AE00AF012E08AB07B3
:10076000003003182F0FAC073C30FD000030FE00B6
:100770002B08FF002C088A11E4258A118312031329
:10078000AC007F08AB00AD00AB00AC010A30FD004F
:100790000030FE002B08FF0000308A117E258A11F0
:1007A00083120313AE007F08AD00AF0007302F05A2
:1007B000AD000739B000B00EF030B005831603135A
:1007C00029088F3983120313300483160313A900F9
:1007D0000A30FD000030FE00831203132B08FF00D7
:1007E0002C088A11E4258A1183120313AC007F08B8
:1007F000AB00AD000F302D05AB000F39B0008316F4
:1008000003132908F03983120313300483160313EA
:10081000A9008A116F278A110800831603132A087A
:10082000303983120313A500A50E0F30A505A701CB
:100830002508A600FD000030FE000A30FF00003051
:100840008A1193248A1183120313A6007F08A5003E
:10085000A50A0319A60A831603132A080F3983125F
:100860000313A700A800A9012808A5070030031852
:10087000290FA6071830FD000030FE002508FF00F4
:1008800026088A11E4258A1183120313A6007F0823
:10089000A500A700A500A6010A30FD000030FE005B
:1008A0002508FF0000308A117E258A118312031368
:1008B000A8007F08A700A90003302905A700033975
:1008C000AA00AA0EF030AA05831603132A08CF390E
:1008D000831203132A0483160313AA000A30FD00AF
:1008E0000030FE00831203132508FF0026088A113A
:1008F000E4258A1183120313A6007F08A500A70030
:100900000F302705A5000F39AA00831603132A0804
:10091000F039831203132A0483160313AA008A11E1
:100920006F278A11080083120313DD007F088312EA
:100930000313E00083120313DC007E08DF007D0850
:1009400083120313E20083120313DE005D08831297
:100950000313E100831203135F0883120313E30000
:1009600083120313600883120313DC008312031342
:10097000620883120313DD00FF005C088A15000083
:100980008F208A11000083120313DD007F08DC0032
:1009900083120313E400831203135D08831203130D
:1009A000E50083120313DC00831203136008831233
:1009B0000313DD0083120313630883120313DE00A5
:1009C000FF005D088A1500008F208A1100007F0853
:1009D00083120313DD0083120313610883120313D0
:1009E000DE0083120313620883120313DF00FF008B
:1009F0005E088A1500008F208A1100007F0883128C
:100A00000313DE00DD075D08DC075C0883120313B7
:100A1000E500640883120313DC00831203136508E6
:100A200083120313DD005C08FF005D0808008A11D3
:100A30002C278A11D0308A11FC228A1183120313C9
:100A4000B4003408031D762D00308A11FC228A116F
:100A50008A112C278A11D1308A11FC228A11831223
:100A60000313B401831203133408A83EB500003009
:100A70000318013EB60001308A11C0218A11831289
:100A80000313B70035088312031384008313831202
:100A90000313361883173708831203138000831259
:100AA0000313B40A06303402031C322D3408A83E66
:100AB000B40000300318013EB50000308A11C02197
:100AC0008A1183120313B6003408831203138400BF
:100AD0008313831203133518831736088312031305
:100AE00080008A1534208A1101307D2D8A1534202A
:100AF0008A118A1534208A110030080083120313EA
:100B0000E7007F08E6007E08E9007D08E80003149E
:100B1000E71F0310EA01EA0D6A080319972D660919
:100B2000EB006709EC00EB0A0319EC0A9D2D831218
:100B300003136608EB006708EC00831203136B08CD
:100B4000E6006C08E7000314E91F0310EB01EB0D4E
:100B50006B080319B32D6809EC006909ED00EC0A74
:100B60000319ED0AB92D831203136808EC00690814
:100B7000ED00831203136C08E800FD006D08E90026
:100B8000FE006608FF0067088A110000AF278A117F
:100B9000000083120313E7007F08E6006B08EA06F3
:100BA0006A080319DE2D6609EA006709E800EA0A07
:100BB0000319E80A6A08FF006808E32D831203138B
:100BC0006608FF006708080083160313B0007F085B
:100BD000AF007E08B2007D08B1000314B01F0310FF
:100BE000B301B30D33080319FD2D2F09B4003009EB
:100BF000B500B40A0319B50A032E831603132F0890
:100C0000B4003008B500831603133408AF0035086C
:100C1000B0000314B21F0310031C162E3109B400D8
:100C20003209B500B40A0319B50A1C2E8316031342
:100C30003108B4003208B500831603133408B1003C
:100C4000FD003508B200FE002F08FF0030088A11B1
:100C5000000095268A11000083160313B0007F0858
:100C6000AF00330803193F2E2F09B3003009B1003C
:100C7000B30A0319B10A3308FF003108442E831662
:100C800003132F08FF0030080800043083160313F5
:100C9000510203187D2E0630831203138A00593047
:100CA000831603135107031C582E831203138A0A59
:100CB00082005D2E652E6D2E752E3830831603133F
:100CC000C80083160313C901852E0730831603134A
:100CD000C80083160313C901852E83160313C801A8
:100CE000383083160313C900852E83160313C801F9
:100CF000073083160313C900852E70308316031343
:100D0000C800073083160313C90083160313D00AE3
:100D10000D305002031C942ED00183160313D10A08
:100D2000043051020318D101080083160313B700E1
:100D30007F08B6007E08B9007D08B800BA01BB0183
:100D40008316031339088039031D0130BC003C08A9
:100D5000031DC12E0310B80DB90D39083702031D4C
:100D6000B32E380836020318BB2E03108316031364
:100D7000B90CB80CC12E83160313BB0A3B08BA008A
:100D8000A02E8316031339083702031DC92E380815
:100D90003602031CD32E831603133808B602390813
:100DA000031C390FB702031083160313B90CB80CD8
:100DB0003A08BB00BA033B08031DC12E3608FF00EA
:100DC000370808000C34003403340034C8340034CD
:100DD00001340034EB340734C934003401340034B6
:100DE000EC340734CA34003401340034E7340734B7
:100DF000C434003404340034ED340734CB340034CC
:100E000001340034EE340734CC340034013400347F
:100E1000EF340734CD34003401340034F034073477
:100E2000CE34003401340034F1340734CF3400348C
:100E300001340034F2340734D03400340134003447
:100E4000F3340734D134003401340034F43407343B
:100E5000D234003401340034831603130516831290
:100E600003130516013083120313B8008312031312
:100E700038080319402F000083120313B803362FDC
:100E8000831603138516831203138516013083120C
:100E90000313B8008312031338080319542F0000FA
:100EA00083120313B8034A2F831603130512831208
:100EB00003130512013083120313B80083120313C6
:100EC00038080319682F000083120313B8035E2F3C
:100ED00083160313851283120313851208008A11E7
:100EE0002C278A11D0308A11FC228A118312031315
:100EF000B1003108031DA72F00308A11FC228A118E
:100F000083120313B101831203133108A83EB20008
:100F100000300318013EB30032088312031384002B
:100F200083138312031333188317831203130008E8
:100F30008A11FC228A1183120313B10A073031028D
:100F4000031C832F8A1534208A110130AE2F8A1595
:100F500034208A118A1534208A1100300800831643
:100F60000313A1007F08A0007E08A3007D08A20053
:100F7000A401A5011030A6008316031321088039AF
:100F8000031D0130A7000310A00DA10D0310A40D37
:100F9000A50D2708031D241423082502031DD22FA5
:100FA00022082402031CDD2F831603132208A40247
:100FB0002308031C230FA502201483160313A60382
:100FC0002608031DBC2F2008FF002108080000345C
:100FD0000034003400343B34003400340034203416
:0A0FE0000034003400340034003403
:10100000003A03190828803A03191228FF01003416
:101010007E08840083137F1883170008FF00840A6A
:10102000000808008A1500002F20FD00FE0FFF03B6
:10103000FF0A8A1500002F20FC007D08FF007C08B5
:101040000800003A03192828803A03192F28003491
:101050007E08840083137F188317000808007F0828
:101060008A007E088200080083160313051283128B
:1010700003130512013083120313B9008312031303
:10108000390803194828000083120313B9033E28C6
:1010900083160313851683120313851601308312FA
:1010A0000313B90083120313390803195C280000E5
:1010B00083120313B90352288316031305168312F0
:1010C000031305160800831603130F168701073054
:1010D000831203138700FB30831603138500063049
:1010E0008312031385000730990001308316031320
:1010F0009100831203139F017030831603139F0026
:10110000831203131F149F140830831603138100E6
:101110008312031381010B118B168B1708008316A2
:101120000313BD007F08BE00BF01C001C10108302C
:101130008316031341020318B4280310BF0DC00D1A
:10114000BD1FAB280030C3003E08C200BF074308E4
:101150000318430FC007831603133D08C200031092
:10116000420DBD00C10A9728831603133F08FF00F4
:101170004008080083120313CB007F08CC004B0803
:10118000CD00CB00CE014C08CD00CF01CD1BCF034D
:101190004D08FD004F08FE004B08FF004E088A1165
:1011A000000093248A15000083120313CC007F08EB
:1011B000CB00FF004C08080083120313C400C200D8
:1011C0007F08C300C501C41BC5034308C200C60194
:1011D000C21BC6034208FD004608FE004408FF008B
:1011E00045088A11000093248A1500008312031316
:1011F000C3007F08C200FF004308080083120313E6
:10120000C7007F08C8004708C900C700CA01C71B3C
:10121000CA034808C900FD000030FE004708FF006F
:101220004A088A11000093248A15000083120313D0
:0C123000C8007F08C700FF004808080045
:02400E00C43FAD
:00000001FF
